:020000040800F2
:1000000000040020B9020008BB020008BA02000880
:10001000BA020008BA020008BA020008BA020008D0
:10002000BA020008BA020008BA0200080126000855
:10003000BA020008BA020008BA020008BA020008B0
:10004000BA020008BA020008BA020008BA020008A0
:10005000BA020008BA020008611B0008311B000840
:10006000011B0008D11A0008A11A0008E1180008B5
:10007000B11800088118000851180008211800085C
:10008000F1170008C117000811190008BA0200088A
:10009000BA020008BA020008BA020008311A0008C1
:1000A000BA02000871140008BA020008911400088E
:1000B000A11400085114000831140008BA02000805
:1000C000BA020008BA020008BA020008BA02000820
:1000D000BA020008BA02000871120008BA02000849
:1000E000B1190008BA020008BA020008BA020008F2
:1000F000BA020008BA020008BA0200089117000804
:10010000BA020008BA020008BA020008BA020008DF
:10011000BA020008BA020008BA020008BA020008CF
:10012000611700083117000801170008D1160008F0
:10013000A1160008BA020008BA020008BA020008B4
:10014000BA020008BA020008BA020008BA0200089F
:10015000711600084116000811160008BA020008BE
:10016000BA020008BA020008BA020008BA0200087F
:10017000BA020008BA020008BA020008BA0200086F
:10018000BA020008BA020008BA020008BA0200085F
:10019000BA020008BA020008BA020008BA0200084F
:1001A000BA020008BA020008BA020008BA0200083F
:1001B000BA020008BA020008BA020008BA0200082F
:1001C000BA020008BA020008BA020008BA0200081F
:1001D000BA020008BA020008BA020008BA0200080F
:1001E00072B6274880F30888264880F30988264895
:1001F0004EF60851CEF200010860022080F3148808
:10020000BFF36F8F01F00CFD00F0F2FE4FF05530A0
:100210001E491B4A91423CBF41F8040BFAE71C49B6
:10022000184A91423CBF41F8040BFAE719491A4AAF
:100230001A4B9A423EBF51F8040B42F8040BF8E700
:1002400000201749174A91423CBF41F8040BFAE7D6
:1002500001F09EFC01F0DCFC134C144DAC4203DABF
:1002600054F8041B8847F9E701F04AFD104C114D82
:10027000AC4203DA54F8041B8847F9E701F0C0BC2C
:1002800000040020000800200000000800000020FA
:1002900000040020F43100080008002000080020BD
:1002A00000080020C00D0020E0010008E001000867
:1002B000E0010008E001000892E700F000F8FEE726
:1002C0002DE9F04FC1F80CD0C3689D46BDE8F08F12
:1002D000002383F311882846A047002002F090FBFA
:1002E00002F0DEF900DFFEE781F0004102E000BF2E
:1002F00083F0004330B54FEA41044FEA430594EAE6
:10030000050F08BF90EA020F1FBF54EA000C55EA20
:10031000020C7FEA645C7FEA655C00F0E2804FEAF1
:100320005454D4EB5555B8BF6D420CDD2C4480EAD3
:10033000020281EA030382EA000083EA010180EA03
:10034000020281EA0303362D88BF30BD11F0004F51
:100350004FEA01314FF4801C4CEA113102D0404287
:1003600061EB410113F0004F4FEA03334CEA1333C2
:1003700002D0524263EB430394EA050F00F0A780DA
:10038000A4F10104D5F1200E0DDB02FA0EFC22FAD5
:1003900005F2801841F1000103FA0EF2801843FAC9
:1003A00005F359410EE0A5F120050EF1200E012ABA
:1003B00003FA0EFC28BF4CF0020C43FA05F3C018F8
:1003C00051EBE37101F0004507D54FF0000EDCF171
:1003D000000C7EEB00006EEB0101B1F5801F1BD31A
:1003E000B1F5001F0CD349085FEA30004FEA3C0C1E
:1003F00004F101044FEA445212F5800F80F09A8014
:10040000BCF1004F08BF5FEA500C50F1000041EB17
:10041000045141EA050130BD5FEA4C0C404141EB1B
:10042000010111F4801FA4F10104E9D191F0000F42
:1004300004BF01460020B1FA81F308BF2033A3F1C5
:100440000B03B3F120020CDA0C3208DD02F1140CBC
:10045000C2F10C0201FA0CF021FA02F10CE002F1F7
:100460001402D8BFC2F1200C01FA02F120FA0CFCF0
:10047000DCBF41EA0C019040E41AA2BF01EB045139
:10048000294330BD6FEA04041F3C1CDA0C340EDC37
:1004900004F11404C4F1200220FA04F001FA02F37A
:1004A00040EA030021FA04F345EA030130BDC4F138
:1004B0000C04C4F1200220FA02F001FA04F340EA2D
:1004C0000300294630BD21FA04F0294630BD94F0DE
:1004D000000F83F4801306BF81F480110134013DC5
:1004E0004EE77FEA645C18BF7FEA655C29D094EA36
:1004F000050F08BF90EA020F05D054EA000C04BFB4
:100500001946104630BD91EA030F1EBF002100209E
:1005100030BD5FEA545C05D14000494128BF41F03D
:10052000004130BD14F580043CBF01F5801130BDA1
:1005300001F0004545F0FE4141F470014FF000002C
:1005400030BD7FEA645C1ABF194610467FEA655CDD
:100550001CBF0B46024650EA013406BF52EA03357F
:1005600091EA030F41F4002130BD00BF90F0000F6D
:1005700004BF0021704730B54FF4806404F13204A9
:100580004FF000054FF0000150E700BF90F0000F62
:1005900004BF0021704730B54FF4806404F1320489
:1005A00010F0004548BF40424FF000013EE700BF59
:1005B00042004FEAE2014FEA31014FEA02701FBFE9
:1005C00012F07F4393F07F4F81F06051704792F0BB
:1005D000000F14BF93F07F4F704730B54FF4607435
:1005E00001F0004521F0004120E700BF50EA010280
:1005F00008BF704730B54FF000050AE050EA01022D
:1006000008BF704730B511F0004502D5404261EB9C
:1006100041014FF4806404F132045FEA915C3FF4DD
:10062000DCAE4FF003025FEADC0C18BF03325FEA76
:10063000DC0C18BF033202EBDC02C2F1200300FA2B
:1006400003FC20FA02F001FA03FE40EA0E0021FA50
:1006500002F11444C1E600BF70B54FF0FF0C4CF43A
:10066000E06C1CEA11541DBF1CEA135594EA0C0FF0
:1006700095EA0C0F00F0DEF82C4481EA030621EA2B
:100680004C5123EA4C5350EA013518BF52EA033566
:1006900041F4801143F4801338D0A0FB02CE4FF018
:1006A0000005E1FB02E506F00042E0FB03E54FF048
:1006B0000006E1FB03569CF0000F18BF4EF0010E40
:1006C000A4F1FF04B6F5007F64F5407404D25FEA3C
:1006D0004E0E6D4146EB060642EAC62141EA5551EF
:1006E0004FEAC52040EA5E504FEACE2EB4F1FD0C31
:1006F00088BFBCF5E06F1ED8BEF1004F08BF5FEAAF
:10070000500E50F1000041EB045170BD06F0004660
:1007100046EA010140EA020081EA0301B4EB5C040D
:10072000C2BFD4EB0C0541EA045170BD41F4801105
:100730004FF0000E013C00F3AB8014F1360FDEBF2A
:10074000002001F0004170BDC4F10004203C35DA06
:100750000C341BDC04F11404C4F1200500FA05F389
:1007600020FA04F001FA05F240EA020001F000422A
:1007700021F0004110EBD37021FA04F642EB0601A0
:100780005EEA430E08BF20EAD37070BDC4F10C04CA
:10079000C4F1200500FA04F320FA05F001FA04F28E
:1007A00040EA020001F0004110EBD37041F100017A
:1007B0005EEA430E08BF20EAD37070BDC4F1200585
:1007C00000FA05F24EEA020E20FA04F301FA05F2ED
:1007D00043EA020321FA04F001F0004121FA04F295
:1007E00020EA020000EBD3705EEA430E08BF20EA65
:1007F000D37070BD94F0000F0FD101F0004640009F
:1008000041EB010111F4801F08BF013CF7D041EA20
:10081000060195F0000F18BF704703F00046520024
:1008200043EB030313F4801F08BF013DF7D043EAF5
:100830000603704794EA0C0F0CEA135518BF95EAAB
:100840000C0F0CD050EA410618BF52EA4306D1D132
:1008500081EA030101F000414FF0000070BD50EA51
:10086000410606BF1046194652EA430619D094EADB
:100870000C0F02D150EA013613D195EA0C0F05D1C5
:1008800052EA03361CBF104619460AD181EA030119
:1008900001F0004141F0FE4141F470014FF00000D1
:1008A00070BD41F0FE4141F4780170BD70B54FF06C
:1008B000FF0C4CF4E06C1CEA11541DBF1CEA1355EC
:1008C00094EA0C0F95EA0C0F00F0A7F8A4EB0504CE
:1008D00081EA030E52EA03354FEA013100F08880C5
:1008E0004FEA03334FF0805545EA131343EA12638E
:1008F0004FEA022245EA111545EA10654FEA002643
:100900000EF000419D4208BF964244F1FD0404F5FB
:10091000407402D25B084FEA3202B61A65EB030557
:100920005B084FEA32024FF480104FF4002CB6EB14
:10093000020E75EB030E22BFB61A754640EA0C0094
:100940005B084FEA3202B6EB020E75EB030E22BFD4
:10095000B61A754640EA5C005B084FEA3202B6EB15
:10096000020E75EB030E22BFB61A754640EA9C00D4
:100970005B084FEA3202B6EB020E75EB030E22BFA4
:10098000B61A754640EADC0055EA060E18D04FEA62
:10099000051545EA16754FEA06164FEAC30343EA02
:1009A00052734FEAC2025FEA1C1CC0D111F4801FCF
:1009B0000BD141EA00014FF000004FF0004CB6E7C8
:1009C00011F4801F04BF01430020B4F1FD0C88BF67
:1009D000BCF5E06F3FF6AFAEB5EB030C04BFB6EB72
:1009E000020C5FEA500C50F1000041EB045170BD65
:1009F0000EF0004E4EEA113114EB5C04C2BFD4EB92
:100A00000C0541EA045170BD41F480114FF0000E15
:100A1000013C90E645EA060E8DE60CEA135594EA91
:100A20000C0F08BF95EA0C0F3FF43BAF94EA0C0F94
:100A30000AD150EA01347FF434AF95EA0C0F7FF409
:100A400025AF104619462CE795EA0C0F06D152EA5D
:100A500003353FF4FDAE1046194622E750EA410641
:100A600018BF52EA43067FF4C5AE50EA41047FF452
:100A70000DAF52EA43057FF4EBAE12E74A0011D204
:100A800012F5001211D20DD56FF47873B3EB6252E8
:100A90000ED44FEAC12343F0004343EA505323FAF4
:100AA00002F070474FF00000704750EA013002D169
:100AB0004FF0FF3070474FF0000070470F0052E3D7
:100AC000F0402DE92900009A003081E1030013E392
:100AD0003100001A02E0A0E110C080E2103081E293
:100AE000107013E50C6013E5085013E5044013E59E
:100AF00010E04EE20F005EE310700CE50C600CE5B8
:100B000008500CE504400CE5103083E210C08CE284
:100B1000F2FFFF8A103042E20F30C3E30F6002E2BF
:100B2000103083E2030056E3031081E0033080E0DD
:100B30001B00009A0140A0E106C0A0E104E043E2EE
:100B400004C04CE2045094E403005CE30450AEE5BE
:100B5000FAFFFF8A04C046E203C0CCE304C08CE283
:100B60000C3083E00C1081E0032002E2000000EA78
:100B70000030A0E1000052E30500000A013043E22A
:100B8000022081E001C0D1E4020051E101C0E3E5AF
:100B9000FBFFFF1AF040BDE81EFF2FE10030A0E18F
:100BA000F5FFFFEA0620A0E1F1FFFFEA00000000E8
:100BB000024AD36843F08003D3607047004400408A
:100BC000836970B51C69DA681440E2B2D243A607A3
:100BD00005461A6103D543681B6903B1984760074E
:100BE00004D56B689B690BB128469847210704D54B
:100BF0006B681B6A0BB128469847E20604D56B6800
:100C00009B6A0BB128469847E30706D56B689B683B
:100C10001BB12846BDE87040184770BD00000000B9
:100C200011F00C0F00D1704772B6024B024ADA6223
:100C3000FEE700BFC40C00204430000800000000A4
:100C400000207047000000000000000000000000CD
:100C500011F00C0F4BD143681A7870B504463AB1C5
:100C6000CE065B6838D5002B35D0BDE870401847FC
:100C7000416A0A68106820F01F0010601068C507FC
:100C8000FCD40E7A226A4D6811683D20B04028607D
:100C9000086820F01F0008600868C007FCD4107ABC
:100CA000596852683D238340136029B3042323709D
:100CB000204688472378042B1ED0202383F31188F5
:100CC000A3682BB10022A26018465A6201F008FD09
:100CD000002383F3118870BD002BFCD00422027026
:100CE00098472378042BF6D10323237070BD72B686
:100CF000034B044ADA62FEE702232370DDE700BFFC
:100D0000C40C002044300008000000000000000077
:100D1000F8B504460F461646202383F3118803E0F6
:100D200001F0A6FC002819DBA56831462046002DFD
:100D3000F6D06269A368511C013B6161A360177022
:100D4000236962699A4224BFE3686361E3690BB176
:100D500020469847002080F31188F8BD85F311885C
:100D6000F8BD00BF0000000000000000000000000F
:100D70003030FFF7CDBF00BF0000000000000000D2
:100D800030304FF0FF32FFF7C3BF00BF000000005C
:100D900070B5202304460E4683F3118803E001F06A
:100DA00067FC00281ADBA56831462046002DF6D0E6
:100DB000A169A36820694A1C013B8242A360A26129
:100DC00028BFE3680D7828BFA361E3690BB1204613
:100DD0009847002383F31188284670BD85F3118856
:100DE00070BD00BF00000000000000000000000017
:100DF0000C30FFF7CDBF00BF000000000000000076
:100E00000C304FF0FF31FFF7C3BF00BF0000000000
:100E10002DE9F04F83B017460193D0F81CA04FF096
:100E2000200B8BF31188002A51D004460E464FF058
:100E3000000817E02A463146FFF740FEE368636189
:100E4000A3685B1BA3606DB3BAF1000F01D020460D
:100E5000D047002383F31188A8442E448BF31188D4
:100E6000474525D9A36860699F4223698CBFA5685F
:100E70003D461B1AAB4222D8DCD21A463146A5EBBE
:100E800003090093FFF71AFE009BE068F1184A4639
:100E9000FFF714FEE3684B446361A3685B1BA36028
:100EA000002DD1D10199204601F0E2FB0028D7D0D6
:100EB000002383F31188404603B0BDE8F08F2A4633
:100EC0003146FFF7FBFD63692B446361B8E7904649
:100ED000EEE700BF0000000000000000000000007E
:100EE0003030FFF795BF00BF000000000000000099
:100EF00030304FF0FF33FFF78BBF00BF0000000022
:100F00002DE9F04F83B017460193D0F81CA04FF0A5
:100F1000200B8BF31188002A51D004460E464FF067
:100F2000000817E02A463046FFF7C8FDE368A361D2
:100F3000A3685B1BA3606DB3BAF1000F01D020461C
:100F4000D047002383F31188A8442E448BF31188E3
:100F5000474525D9A368A1699F4223698CBFA5682D
:100F60003D465B1AAB4222D8DCD21A463046A5EB8E
:100F700003090093FFF7A2FD009BE168F0184A46C1
:100F8000FFF79CFDE3684B44A361A3685B1BA36070
:100F9000002DD1D10199204601F06AFB0028D7D05D
:100FA000002383F31188404603B0BDE8F08F2A4642
:100FB0003046FFF783FDA3692B44A361B8E7904651
:100FC000EEE700BF0000000000000000000000008D
:100FD0000C30FFF795BF00BF0000000000000000CC
:100FE0000C304FF0FF33FFF78BBF00BF0000000055
:100FF000864ADFF84CC211692DE9F04340F2FF192F
:10100000002341EA090111611361116B804F814E88
:10101000814DDFF830E2814C41EA09011163116D25
:1010200041EA0909C2F850906FF4A849CCF804309D
:10103000CCF80890DFF81092CCF80C904FF6FF71C6
:10104000DFF80892CCF81410CCF82090DFF800926A
:10105000CCF8249009F12A5909F5B019CCF8009080
:101060004FF4107CC7F804C04FF0FF30DFF8E4C144
:10107000B860C7F80CC04FF0806C7961C7F820C029
:10108000DFF8D4C14FF04008C7F82480C7F800C08B
:101090000CF1AA4CACF5430CACF62C3C7360B06080
:1010A000C6F80CC04FF0C04C7161C6F820C0DFF824
:1010B000ACC1C6F824C0DFF8A8C1C6F800C0DFF88C
:1010C000A4C16B60A860C5F80CC040F6FF7CC5F8F1
:1010D00014C007F58057DFF890C12B6206F58056E3
:1010E0006B62C5F800C005F58055DFF838C1CEF851
:1010F0000430CEF80800CEF80C30CEF81410CEF83C
:101100002030CEF82430CEF800807B604FF0805E37
:10111000B860FB6079613B627B623B604FF44047A3
:101120007360B060F36071613362736233606B60EF
:10113000A860EB6069612B626B622B606360A060EA
:10114000E3606161236263622360C2F840E0CCF82F
:101150000070136843F00103136013461A68940784
:10116000FCD59968294A21F003019960936813F02E
:101170000C03FBD11068254900F0F9001060936062
:10118000136843F4803313600B689803FCD54B6FEE
:101190001E4A43F001034B67536F9907FCD5204B60
:1011A000536013681F4943F0807313604B685A04FF
:1011B000FCD5164A13689B01FCD51B4B1B4991605B
:1011C0001A681B4B9A4217D01A4B40F205721A60EC
:1011D0000E4A936843F002039360936803F00C0394
:1011E000082BFAD1536C43F480435364536E43F499
:1011F00080435366BDE8F0830F4A104B12689A4251
:10120000E2D10C4B40F205121A60E1E700380240CF
:101210000004024000080240000C0240002002408E
:101220000854400700700040002004E00094883813
:1012300011640020003C024000ED00E041C20F417B
:1012400000000240001002405400014000005655CA
:1012500000AA0A0015455155802008000006060026
:10126000018020025550550000010055000000008B
:101270002DE9F043694D6E6FD6F80C803368DA05BE
:1012800083B09CB27CD4202383F3118814F02F0FF9
:1012900049D0634F4FF0000907E0A10673681CD4E2
:1012A0003468A4B214F02F0F3DD02307F5D014F00A
:1012B000080F0CBF00208020E10748BF40F020004D
:1012C000A20748BF40F04000630748BF40F4807069
:1012D00001F0BEFBA1067368E2D56A6995F8784013
:1012E000002A3CD02A6A696A8A4241D0696923404F
:1012F000501C01312862696113702A6AEB699A42B5
:1013000001D3AB692B62EB68BB42C9D01A68EA60B3
:1013100018465760C3F8249001F0E2F93468A4B28B
:1013200014F02F0FC1D1002383F3118818F0800F20
:1013300001D0220632D418F0400F0BD0630609D535
:10134000202383F311886A6CAB6C9A424BD0002344
:1013500083F3118803B0BDE8F04301F021B9042004
:10136000019301F075FB2A6A696A019B8A42BDD12B
:1013700069690029BAD04FF4806001F069FB8FE7FA
:10138000202383F311884FF4007001F061FB6FF4A8
:1013900080733360002383F3118874E7202383F381
:1013A0001188AB6C6A6C9A4229D0AA6B296C581CC4
:1013B0000132AA63A86488421F7801D3EB6BAB6447
:1013C0002B6B184A934209D0196829634FF0000E1D
:1013D0004A601846C3F824E001F082F977600023E0
:1013E00083F31188A7E7AB6B002BB0D0102001F07E
:1013F0002FFB4FF6BF7308EA0303F360A7E7AA6B5E
:10140000002AD2D0082001F023FB4FF63F7308EAF0
:10141000030343F04003F360E1E700BF180C002032
:10142000240C0020480C00200000000000000000F8
:1014300008B50348FFF7C4FBBDE8084001F0B0B8A9
:101440006C08002000000000000000000000000008
:1014500008B50348FFF7B4FBBDE8084001F0A0B8A9
:101460005008002000000000000000000000000004
:1014700008B50348FFF7A4FBBDE8084001F090B8A9
:101480003408002000000000000000000000000000
:10149000FFF7EEBF000000000000000000000000A9
:1014A0002DE9F0474FF080473B699B0703D4BDE827
:1014B000F04701F075B800213961202383F31188CA
:1014C0001E4CA146B84659F81C3F9A680F46D8F8FA
:1014D0002400A16A451A95421BD320261868D3F828
:1014E0000CA011444845A162A5EB0205C0F8049088
:1014F000E061DF6008BFC8F80C7087F311881869D5
:10150000D04786F31188E3699A689542DFD3A16AD0
:10151000E4E7E2694A450AD09168A0624D1B9560F4
:101520009B68022B2CBFC0180230C8F8340000237F
:1015300083F31188BDE8F04701F032B8C40C0020F5
:101540002DE9F04F02F0030AC2F38008C2F3C10C88
:10155000C2F3411ED146C2F3C31200274FF00F0B56
:101560000FE0036A23EA040425430562490839D0E1
:101570004FEA48084FEA8C0C4FEA8E0E4FEA890971
:101580000137CB07F2D543680124BC4023EA0403AA
:1015900043EA0803436003257B00846805FA03F3EC
:1015A000DB431C4044EA0C048460C56807F0070470
:1015B0001D4045EA0E05A400BAF1020FC56002FA0B
:1015C00004F50BFA04F40FD00668334043EA09032C
:1015D000072F0360C5D9436A23EA04042543490859
:1015E0004562C5D1BDE8F08F072F0AD8066A26EA02
:1015F0000404254305620468234043EA09030360A9
:10160000B4E7466A26EA040425434562F3E700BFCF
:10161000084B09485968826F890D01F03D0110B5EA
:101620008C05DC600AB1C06F9047BDE8104000F047
:10163000B7BF00BF006402403C0D00200000000066
:10164000084B09485968026F090C01F03D0110B5BB
:101650000C04DC600AB1406F9047BDE8104000F018
:101660009FBF00BF006402403C0D0020000000004E
:10167000084B09485968826E890901F03D0110B58F
:101680008C01DC600AB1C06E9047BDE8104000F0EC
:1016900087BF00BF006402403C0D00200000000036
:1016A00008B5074B07485968026E01F03D01D96043
:1016B0000AB1406E9047BDE8084000F071BF00BF1E
:1016C000006402403C0D002000000000000000000B
:1016D000084B09481968826D890D01F03D0110B56C
:1016E0008C059C600AB1C06D9047BDE8104000F0C9
:1016F00057BF00BF006402403C0D00200000000006
:10170000084B09481968026D090C01F03D0110B53C
:101710000C049C600AB1406D9047BDE8104000F099
:101720003FBF00BF006402403C0D002000000000ED
:10173000084B09481968826C890901F03D0110B510
:101740008C019C600AB1C06C9047BDE8104000F06D
:1017500027BF00BF006402403C0D002000000000D5
:1017600008B5074B07481968026C01F03D01996004
:101770000AB1406C9047BDE8084000F011BF00BFBF
:10178000006402403C0D002000000000000000004A
:10179000084B09485968826B890D01F03D0110B56D
:1017A0008C05DC600AB1C06B9047BDE8104000F0CA
:1017B000F7BE00BF006002403C0D002000000000AA
:1017C000084B09485968026B090C01F03D0110B53E
:1017D0000C04DC600AB1406B9047BDE8104000F09B
:1017E000DFBE00BF006002403C0D00200000000092
:1017F000084B09485968826A890901F03D0110B512
:101800008C01DC600AB1C06A9047BDE8104000F06E
:10181000C7BE00BF006002403C0D00200000000079
:1018200008B5074B07485968026A01F03D01D960C5
:101830000AB1406A9047BDE8084000F0B1BE00BF61
:10184000006002403C0D002000000000000000008D
:10185000084B094819688269890D01F03D0110B5EE
:101860008C059C600AB1C0699047BDE8104000F04B
:1018700097BE00BF006002403C0D00200000000049
:10188000084B094819680269090C01F03D0110B5BF
:101890000C049C600AB140699047BDE8104000F01C
:1018A0007FBE00BF006002403C0D00200000000031
:1018B000084B094819688268890901F03D0110B593
:1018C0008C019C600AB1C0689047BDE8104000F0F0
:1018D00067BE00BF006002403C0D00200000000019
:1018E00008B5074B074A196801F03D019960136874
:1018F0000BB150689847BDE8084000F051BE00BFEA
:10190000006002403C0D00200000000000000000CC
:10191000F8B5244B1A6800211960930639D5224C7A
:10192000E16A0A685368002B33D02069002830D060
:10193000136823F01F031360136813F00103FBD136
:101940000F7A4E68A26A85683D21B94031605360C4
:101950009368012123F0804393609160EDB10523EA
:1019600023701148A8472378052B04BF0223237056
:1019700000232361202383F31188606930B14FF085
:10198000FF3343620023636100F0AAFE002383F368
:101990001188BDE8F84000F003BE022325612370E2
:1019A000E8E700BF00200140000800200000000020
:1019B0001A4B10B55C691A68144004F47C425A61F1
:1019C000620504D5164A136D0BB1506D9847230577
:1019D00004D5134A936D0BB1D06D9847E00404D53C
:1019E0000F4A136E0BB1506E9847A10404D50C4AF0
:1019F000936E0BB1D06E9847620404D5084A136FFA
:101A00000BB1506F9847230404D5054A936F0BB16F
:101A1000D06F9847BDE8104000F0C2BD003C0140C7
:101A20008808002000000000000000000000000006
:101A3000174B10B55C691A68144004F478725A6147
:101A4000A30604D5134A936A0BB1D06A984760067F
:101A500004D5104A136B0BB1506B9847210604D57F
:101A60000C4A936B0BB1D06B9847E20504D5094A39
:101A7000136C0BB1506C9847A30504D5054A936CC1
:101A80000BB1D06C9847BDE8104000F089BD00BF95
:101A9000003C014088080020000000000000000019
:101AA000084A08B5536911680B4003F010035361ED
:101AB00023B1054A136A0BB1506A9847BDE8084044
:101AC00000F06EBD003C01408808002000000000CE
:101AD000084A08B5536911680B4003F008035361C5
:101AE00023B1054A93690BB1D0699847BDE8084016
:101AF00000F056BD003C01408808002000000000B6
:101B0000084A08B5536911680B4003F00403536198
:101B100023B1054A13690BB150699847BDE80840E5
:101B200000F03EBD003C014088080020000000009D
:101B3000084A08B5536911680B4003F0020353616A
:101B400023B1054A93680BB1D0689847BDE80840B7
:101B500000F026BD003C0140880800200000000085
:101B6000084A08B5536911680B4003F0010353613B
:101B700023B1054A13680BB150689847BDE8084087
:101B800000F00EBD003C014088080020000000006D
:101B9000F0B5134F134D144C144B154907F1700E4B
:101BA00000269C4211D904391A4651F8040F42F814
:101BB000040B9442F9D8DA43144424F003040434A7
:101BC00023449D4203D943F8046B9D42FBD87745DB
:101BD00004D007F110013AC91037E2E7F0BD00BFA9
:101BE000C42F0008C00D0020C00D0020C00D002033
:101BF000F4310008000000000000000000000000B8
:101C0000FEE700BF00000000000000000000000030
:101C1000704700BF0000000000000000000000004E
:101C2000704700BF0000000000000000000000003E
:101C300080B5294B294E9B69294A9A6182B030466A
:101C400040F29A224FF40051FFF77AFC304640F2FE
:101C50009A224FF48041FFF773FC224F224D234C10
:101C6000DFF89490304619224FF40061FFF768FCCA
:101C70004FF400633383384619224FF40041FFF7D5
:101C80005FFC1B4ED5F810804FF400433B8395E872
:101C90000F00CDF8008000F03BFD236900938246E1
:101CA00094E80F0000F034FD52460746494630469E
:101CB00000F0A6FF3A460F49304600F0A1FF20236E
:101CC00083F3118841F28831082000F0D9FB00230A
:101CD00083F31188DBE700BFC40C0020000402403E
:101CE0005030000800100240683100087C310008C4
:101CF000180C002078300008603000080000000058
:101D00001E4B1F4819696FEAC15100226FEAD15179
:101D10002DE980484FF0FF3419611A6159695C61FF
:101D20005A61196A61F0805119621A62596A5C62DB
:101D30005A62196C41F080511964196E41F080515A
:101D40001966016841F480710160196F01F44071F6
:101D5000B1F5007F87B003D04FF4803119671A675F
:101D6000074C084E62680849084D094F002022F4CC
:101D7000007262600346024630600DE000380240A7
:101D800000700040BC0D00209C3000081060024034
:101D90003C0D002051F80C5C2A6047F833200133D9
:101DA000102B01F10C01F5D1BD4BBE48BE4EBF4911
:101DB00060224FF0FF34402584608027C460B46007
:101DC0004FF48070F46083F806234FF40076C3F874
:101DD00080514FF480641D604FF4000583F80723A1
:101DE000C3F880711F6083F80823C3F8800118606E
:101DF00083F80923C3F880611E6083F80A23CE1993
:101E0000C3F880411C6083F817230024C3F8805175
:101E10001D6083F82823C3F8840158600C604C606F
:101E20000831B142FAD1A24EA24BDFF874A2A24F00
:101E3000DFF8D0929F62C3F830900127B4464FF08C
:101E400060095C609C60DC601C615C611C621F70EE
:101E5000DFF8B4B28AF812934FF48029CAF880915F
:101E6000964DCAF8009096494CF804BB03F1180946
:101E7000944ADFF898E29448C3F81890C3F81C908D
:101E8000D962924BDFF88892C6F804C04FF0040B79
:101E9000AB61DFF88082DFF880C28EF8007010231B
:101EA000CEF80440CEF80C40CEF818808EF810B072
:101EB0002F706C60EC6085F810B007704460C460EF
:101EC00080F810B0C0F818C0377274611770B3632F
:101ED000D9F84030DFF844C2B4623B4306F17400E5
:101EE000C9F84030DFF838E23064C6F84CC0A1F1E0
:101EF0006C00DFF830C2764D764BC2F82CC06039EA
:101F0000C6F874E0D56106F10C0E06F154051062B6
:101F1000516206F1640006F13001936202F10C0394
:101F2000546094605461C6F80CE0C6F810E0B561E6
:101F300075623562F061F063B0647064316371633F
:101F4000F6623665D3601361D9F860306248634D3C
:101F50003B43C9F8603081686D604FF0804339437E
:101F6000816042F2CF0E4FF0FF324FF080084FF009
:101F70008050C3F828E005F11C01DA629C615C63C3
:101F8000DC605C605F611F608AF81C830023CAF814
:101F90008001CAF8000068468DE814006A622D606E
:101FA0000022CDE90423E961296202940394AC6024
:101FB0002D616D61AC626C6700F01AFE684600F03E
:101FC0002FFB4749029B474A6B67474B0B6001F168
:101FD0000C034C608C604C61CB600B6102F1100112
:101FE000142302F1240C1161936102F128011C23D6
:101FF0003E48DFF834E1C2F824C0916202F13C0CA3
:1020000002F1400113633A4BC2F83CC01164136201
:102010009363DFF818C13749374B94605461C2F8B5
:102020001CB0D462C2F834B0CEF800C0CEF80410B0
:10203000C5F8388085F85140C5F86C80AC666C6690
:1020400085F8527012605260AB64C1682B4BD5F8B2
:1020500014C0DFF8DCE02D644FF6FF0211400B43A3
:1020600005F13002C5F844C0CCF81020C360DEF89A
:102070000C3023496A6143F08073CEF80C300B6852
:10208000AA613B43EC6485F8507005F15C020B607B
:1020900005F1580E4FF0200B4FF010034AE000BF3F
:1020A00000E100E000600240006402408808002077
:1020B000180C0020000800200020014050080020DB
:1020C00020310008940C00206C080020000400401F
:1020D0000038004016000100002004E0C40C00207D
:1020E000300A0020080900208123000800ED00E0EC
:1020F0004123000800000220503100080003FA05C7
:10210000001000E0162C0200C03100083408002046
:10211000003802400000014000080040B10B0008F8
:102120000044004046000100280A0020C00D0020A5
:10213000F0ED00E0C5F858E0C377EA6580F822B01A
:102140002A6684F3118862B68BF311886D4B696936
:102150006D48C3F8987003F16C02C3F8CC7083F833
:10216000B270C3F89C20C3F8A80003F19002DFF816
:10217000BCE16648C3F8A410022783F8B070C3F826
:102180008C001C6783F8B140C3F8C840C3F8C44052
:10219000C3F8A050C3F8AC30C3F86CE003F1B80743
:1021A0000A6103F1BC011046C3F8B870C3F8BC1053
:1021B000C3F8C0106A6100F0EBFC84F31188544F3F
:1021C000544C414638461922FFF7BAF95946204681
:1021D0001922FFF7B5F9414620464022FFF7B0F932
:1021E000A7F81A80A4F81AB08BF31188337A012B60
:1021F00072D0736F484A93426AD002F5806293426C
:1022000066D040F245429A604FF04009012742F201
:102210002C110024C3F81090FF225F614FF00208D8
:10222000D9601C6019685B6886F8782086F8088099
:1022300084F3118840F2823220213548FFF780F97B
:10224000494640F282323248FFF77AF9334934483E
:1022500000F0D6FC202383F31188324B69692B4AA6
:10226000C3F87C21DFF8C8E02F4EC3F8986103F56E
:10227000C07203F5AE7C8520C3F89411C3F88801C1
:10228000C3F8BC01C3F8604183F8A08183F8A14181
:10229000C3F8B841C3F8B44183F8A271C3F89051B0
:1022A000C3F89C31C3F88CC1C3F85CE103F5D47664
:1022B0000A6103F5D6711046C3F8A861C3F8AC11E2
:1022C000C3F8B0116A6100F063FC84F31188FEE783
:1022D00040F68B029A6097E7D9F8403043F4003318
:1022E000C9F84030D9F860304022C02143F40033AF
:1022F000C9F860308AF82613CAF88421CAF8042085
:1023000077E700BF5009002090310008D102000893
:10231000000C024000040240001001409831000807
:10232000180C0020500A0020B83100084124000891
:10233000311C000800000000000000000000000048
:10234000F0B40B4E376872687C1E4B1E4D420C4435
:102350001918294004EA05000144914204D88F422B
:1023600002D83160F0BC70470020F0BC704700BF5D
:10237000280A00200000000000000000000000000B
:10238000F0B4202383F311880D4D2F686C684E1E26
:102390003A448319494290190B4008400344A34230
:1023A00007D89F4205D82B60002383F31188F0BC27
:1023B00070470020002383F31188F0BC704700BFF2
:1023C000280A0020000000000000000000000000BB
:1023D000202383F3118890F82030072B0ED8DFE8F4
:1023E00003F0280D0D2408040D08426A9368013398
:1023F000936090E80C001A600268536010B40022E9
:102400004FF0FF3481680D4B446280F820201B6838
:102410009A688A42FBD25A684260036000211060C9
:10242000586081F3118810BC7047436A00221A601B
:10243000E4E7002383F31188704700BFC40C002039
:10244000FEE700BF000000000000000000000000E8
:10245000084B99691A6810B481F820001068186058
:102460000124436082F82040104610BC9A61FDF7B9
:1024700027BF00BFC40C00200000000000000000C7
:10248000F0B54B1C87B04CD0414C2546A369059351
:1024900055F81C3F02294FF0804E074638BF0221F5
:1024A0003C48DEF824200490AB425CD0A06A121AAB
:1024B00089189A6831D291423CBF4018CEF8340056
:1024C000914204D91B68891A9A688A42FAD35A68D9
:1024D000029201AE019316605E6003919A68511AF0
:1024E0004FF0FF32996062623846FFF7B1FF049BFC
:1024F0007BB1E369B3421BD0029A019B1360019B3D
:102500000021AB425A60049103D09A6803990A44AF
:102510009A60A369586A07B0F0BD1B68891A9A6867
:10252000CEE71B4CFFF794FFA369586A07B0F0BDD4
:10253000019BE3610022AB425D60049224D09A6863
:102540000398A16A02444FF080409A60436A5B1A84
:102550009A42DED9D01A012898BF9A1C4FF08043C6
:102560000A445A63D5E7A262881801AE002202230A
:10257000019502950391E6612662CEF83400CEF80B
:102580001020CEF80C30AFE74FF08043DA60C0E7A0
:10259000C40C0020D123000800000000000000004F
:1025A000202383F311880F4B5B6813F4006302D17F
:1025B00083F311887047EFF309834FF0807243F87B
:1025C000042CA3F1200282F30988074A116892695A
:1025D0008968926891428CBF044A054A43F8082CE6
:1025E000704700BF00ED00E0C40C0020E1020008CD
:1025F000E4020008000000000000000000000000ED
:10260000EFF30983203383F30988002383F31188D0
:10261000704700BF00000000000000000000000044
:102620000E4B0F4A5B68C168F0B48768566F42680A
:10263000D0E90445DB1B9B1BE41845F100059342E0
:10264000026888BF436001319342C0E90445C1601C
:10265000836038BF0360F0BC704700BF001000E02B
:10266000C40C00200000000000000000000000007A
:1026700061B1084B10B4024644689B69042083E8AA
:1026800014002360536010BCFFF7FABE4FF0FF3018
:10269000704700BFC40C00200000000000000000D4
:1026A0000E4A1068036830B4012194695A6000250D
:1026B00080F82010A1681360906184F8205000E039
:1026C0001B689A689142FBD35A6862602360214676
:1026D00014605C6030BCFDF7F3BD00BFC40C00208B
:1026E00000228168084B10B4044680F820201B6843
:1026F0009A688A42FBD25A6862602360204614605E
:102700005C6010BC704700BFC40C002000000000DB
:1027100084B02DE9F04782B000240AAD85E80F00AF
:102720008DF804408DF80540202383F31188A84CD0
:10273000A84D6069AE69002800F04381B2688368E3
:1027400093420BD290F820308260062B00F01C815F
:10275000072B00F00581002B00F0D6809E4F3B46F2
:1027600003E09968B268914202D31B68BB42F8D17A
:102770005A6872603360062016605E607762FFF709
:1027800067FE002383F31188202383F311882378C5
:102790000AAA012B626000F0C6800AA8018AA26A18
:1027A000E36A0E0522F4F04223F4F043067844BFB6
:1027B00042F4205243F42053A262E362002E40F020
:1027C000AB8022F4847223F48473A262E362E3692F
:1027D000428A186842F0070241F4417192B289B20C
:1027E00020F04000186019605A601A68022042F018
:1027F00040021A604FF00008207088F311884FF0F3
:10280000200989F311886268D3689268012606FA64
:1028100003F39BB2538388F3118889F311884FF037
:10282000030E216A626AA36A84F800E009681268EC
:10283000DFF8B8C10DF1040A43F48063C1F80CA0BD
:1028400048600B60E36AC2F80CC0506013600B680C
:10285000D5F818C0DFF898A133430B6013683343F1
:1028600013607046CCF824A0C4F808C0FFF7F0FD50
:1028700088F3118889F311886368DA689B68964049
:10288000B6B21E8388F31188A86989F31188E668B7
:10289000A3698363BE4200F09180C16B4BB11A689B
:1028A000934203D09268914238BF1146DB68002BF7
:1028B000F5D13368B26B8160E36030465F60A2613E
:1028C000B7636661FFF70CFF2A68AB6992689B6883
:1028D0009A4201D9FFF7E4FE002383F311889DF8A3
:1028E00004309DF8050040EA0320C008FDF74EFEC5
:1028F00000223A4BFDF7B0FEFEF7C0F880B202B0FE
:10290000BDE8F04704B0704790E80C001A60026818
:102910005360FFF7E5FE21E742F4847243F48473C9
:10292000A262E36253E72E49206A00F0C9F82D49FC
:10293000606A00F0C5F82C4A206A116C636AD0F80E
:1029400000E01E68E369606841F480411164116E23
:102950000C3341F480411166CEF80830B3601DE7B6
:1029600090E80A00196001684B60476A3B4602E044
:102970009968914202D31B689F42F9D15A6842601C
:10298000036010605860E9E690E80A001960016889
:102990004B60476A3B4602E09968914202D31B684C
:1029A0009F42F9D15A684260036010605860B8686D
:1029B000B26883689A423FF6C5AECFE6C4F8148089
:1029C0008AE7B36B666104F10C07A361B763D8E6CD
:1029D000940C0020C40C0020A00C00200000D03F6C
:1029E000510C0008210C000800380240E8310008B2
:1029F0009C0C00200000000000000000000000000F
:102A000038B52022034682F31188104A9469A06ADF
:102A1000636204F12805854206D00368A362FFF7CC
:102A20005FFEA06AA842F8D194F8223043B994F826
:102A300021309B0704D1636922691A6122695361BD
:102A40000F20BDE83840FFF703BD00BFC40C0020D5
:102A5000F8B5174F57F8044FBC4221D00546002661
:102A600002E02468BC421BD0E3682B43E36015B14D
:102A700022691342F5D06068A368416B90F820206A
:102A80000B430A2A43630CD00B2AEAD1426A32EA8A
:102A90000303E6D14662FFF723FE2468BC42E3D17C
:102AA000F8BD426A1342DCD04662FFF719FEF4E734
:102AB000180C0020000000000000000000000000D2
:102AC000F0B42D4E447A3768012303FA04F23A42F7
:102AD0004CD12A4D2A4B45F834103A4305EBC40437
:102AE00012F0FF0F3260636008D0264B1C6B44F479
:102AF00000141C631C6D44F400141C6512F47F4F19
:102B00002AD10268136823F01F031360136813F0BF
:102B10000103FBD1057A46683D24AC402125346091
:102B20001360556129B3817A4A0901F1604492002A
:102B300004F5614402F1604202F561420120A025E2
:102B400001F01F0100FA01F184F800531846C2F8A1
:102B500080111160F0BC70470A4B1A6B42F480027E
:102B60001A631A6D42F480021A65CAE71846F0BC6F
:102B700070470846F0BC7047BC0D00203C0D00209B
:102B8000940C00200038024000000000000000000B
:102B9000154B70B4002204469D694262A868A16882
:102BA00081420CD884F820201B689A689142FBD996
:102BB0005A686260236014605C6070BC704785F87E
:102BC00020201A46126891688842FBD950686860D4
:102BD00001262A600560556084F820602946204659
:102BE0009C6170BCFDF76CBBC40C002000000000B1
:102BF000014B5B6883607047001000E0000000003C
:102C00000EB42DE9F04F86B00FAF9F4D57F8046B0F
:102C100002974FF0000B3178731C61B1252910D059
:102C20002A689948D2681E46904731780BF1010B0B
:102C3000731C0029F2D1584606B0BDE8F04F03B02E
:102C4000704772782D2A03BFB278B31C4FF0010C85
:102C50004FF0000C302A03BF5A7801334FF030098F
:102C60004FF02009591C002405E03B78043711F887
:102C7000012B03EB4004A2F13003DBB2092B0E461B
:102C800004EB8400F3D92A2AEFD02E2A4FF000015A
:102C900043D002F0DF034C2B4ED0A2F14400342885
:102CA00000F25181DFE810F0FE004F014F014F01AB
:102CB0004F01FE004F014F014F014F014F01F8003E
:102CC0004F014F014F014F014F0188004F014F014C
:102CD000FB004F014F014F014F014F014F014F01C9
:102CE0004F014F014F014301FE004F014F014F01C2
:102CF0004F01FE004F014F014F014F014F01F800FE
:102D00004F014F014F0129014F0188004F014F0131
:102D1000FB003B78043703EB400116F8012BA2F1CE
:102D20003003DBB2092B01EB8100F4D92A2AF0D061
:102D300002F0DF034C2BB0D133780BB101361A46C9
:102D4000A2F14403342B00F2FE80DFE813F0AB0065
:102D5000FC00FC00FC00FC00AB00FC00FC00FC00E4
:102D6000FC00FC00A500FC00FC00FC00FC00FC00DA
:102D70003500FC00FC00A800FC00FC00FC00FC008E
:102D8000FC00FC00FC00FC00FC00FC00F000AB00C0
:102D9000FC00FC00FC00FC00AB00FC00FC00FC00A4
:102DA000FC00FC00A500FC00FC00FC00D600FC00C0
:102DB0003500FC00FC00A8004FF00A083A680DF14D
:102DC0001701043700E00146B2FBF8FE08FB1E22A3
:102DD00002F13003392BC8BF02F13703DBB2724670
:102DE00001F8013C481E002AEDD10DF117020DF14A
:102DF0000C08121AC646104401E011F8013B0EF807
:102E0000013B8842F9D1531E0193A41A3ED4BCF170
:102E1000000F40F0A180C4F1000A002C00F09B805C
:102E200098F800102D2900F0A6802B684946DB6831
:102E3000284698471AF1010AF7D1019B002BA344B9
:102E4000A8BF5446FFF6E7AEDDF804A02B6818F8DB
:102E5000011BDB680AF1FF3A28469847BAF1FF3FA9
:102E6000F4D1019B0BF1010B9B44002C3FF4D3AE3A
:102E7000A0462B684946DB6828469847B8F1010808
:102E8000F7D1A344C7E600BF180C0020019B002B1C
:102E9000A8BF0024D8DABEE64FF008088EE74FF04E
:102EA00010088BE73968002907F1040773DB0DF17F
:102EB0000C08424602F10B03019318463E4BA3FB5C
:102EC00001E3DB0803EB830A9E46A1EB4A033033A0
:102ED000DBB2714600F8013D0029EFD10199091AD2
:102EE000114401E010F8013F02F8013B8A42F9D198
:102EF000A2EB0802531E019387E7D7F8008004373E
:102F0000B8F1000F50D098F8003051B36BB30139CD
:102F1000424601E0013903D412F8013F002BF9D1F8
:102F2000A2EB0802531E01934FF020096DE70DF14B
:102F300018083B6808F80C3D002304370193012270
:102F40004FF0200961E70DF11808002308F80C2D57
:102F50000193012259E75446019B002BBFF674AF41
:102F600083E747F6FE71002BD2D14FF0FF33019378
:102F70004FF020094BE7B9F1300F7FF456AF2A68C4
:102F80000E48D2689047019B013B08F101080BF104
:102F9000010B019349E72D2349428DF80C300DF1C7
:102FA0000D020DF10C0885E7DFF814800029AED181
:102FB00047F6FF71ABE700BFCDCCCCCC180C00209E
:042FC000EC310008E8
:102FC400F4310008C00D0020C00D0020C00D002009
:102FD400F431000800000020000000200000002060
:102FE400F431000800C0012000C0012000C001200D
:102FF400F4310008000000000000000000000000A0
:10300400F43100080000001000000010000000105F
:10301400F4310008004002400040024000400240F9
:10302400F43100080000000000000000000000006F
:10303400F43100080000000000000000000000005F
:10304400444D41206661696C75726500546865720F
:103054006D6F636F75706C650000000054656D7072
:10306400203120284329203A20252E3264200D0ABD
:103074000D0A000054656D70203220284329203A3F
:1030840020252E3264200D0A0D0A00001060024033
:103094000860024000000B00286002400860024003
:1030A40006010C00406002400860024010020D005E
:1030B400586002400860024016030E00706002402F
:1030C4000C60024000040F00886002400C60024063
:1030D40006051000A06002400C60024010061100BA
:1030E400B86002400C60024016072F0010640240D2
:1030F4000864024000083800286402400864024062
:10310400060939004064024008640240100A3A008B
:103114005864024008640240160B3B00706402408D
:103124000C640240000C3C00886402400C640240C1
:10313400060D4400A06402400C640240100E4500D9
:10314400B86402400C640240160F46006D61696E5B
:1031540000160028040444080C1014181C20212212
:103164000000000000000000000000000010024009
:103174000F0000003000000000000000000000000C
:10318400000402400B0000003000000069646C651C
:10319400000000004465627567205669612053652C
:1031A4007269616C205573696E67205541525432BF
:1031B400200D0A006E6F6E616D6500000000000056
:1031C400F10E0008E10F0008810D0008010E00084F
:1031D400710D0008F10D0008E10E0008D10F000880
:1031E400410C0008FFFF0000286E756C6C2900007C
:04000005080002B934
:00000001FF
