:020000040800F2
:1000000000040020B9020008BB020008BA02000880
:10001000BA020008BA020008BA020008BA020008D0
:10002000BA020008BA020008BA020008211F00083C
:10003000BA020008BA020008BA020008BA020008B0
:10004000BA020008BA020008BA020008BA020008A0
:10005000BA020008BA020008511100082111000874
:10006000F1100008C110000891100008F10E0008FE
:10007000C10E0008910E0008610E0008310E000844
:10008000010E0008D10D0008210F0008BA02000877
:10009000BA020008BA020008BA02000821100008DB
:1000A000BA020008810A0008BA020008A10A000882
:1000B000B10A0008610A0008410A0008BA020008F3
:1000C000BA020008BA020008BA020008BA02000820
:1000D000BA020008BA02000871080008BA02000853
:1000E000A10F0008BA020008BA020008BA0200080C
:1000F000BA020008BA020008BA020008A10D0008FE
:10010000BA020008BA020008BA020008BA020008DF
:10011000BA020008BA020008BA020008BA020008CF
:10012000710D0008410D0008110D0008E10C0008D8
:10013000B10C0008BA020008BA020008BA020008AE
:10014000BA020008BA020008BA020008BA0200089F
:10015000810C0008510C0008210C0008BA020008AC
:10016000BA020008BA020008BA020008BA0200087F
:10017000BA020008BA020008BA020008BA0200086F
:10018000BA020008BA020008BA020008BA0200085F
:10019000BA020008BA020008BA020008BA0200084F
:1001A000BA020008BA020008BA020008BA0200083F
:1001B000BA020008BA020008BA020008BA0200082F
:1001C000BA020008BA020008BA020008BA0200081F
:1001D000BA020008BA020008BA020008BA0200080F
:1001E00072B6274880F30888264880F30988264895
:1001F0004EF60851CEF200010860022080F3148808
:10020000BFF36F8F01F004F802F042F84FF0553061
:100210001E491B4A91423CBF41F8040BFAE71C49B6
:10022000184A91423CBF41F8040BFAE719491A4AAF
:100230001A4B9A423EBF51F8040B42F8040BF8E700
:1002400000201749174A91423CBF41F8040BFAE7D6
:1002500000F096FF00F0D4FF134C144DAC4203DACB
:1002600054F8041B8847F9E701F08AFA104C114D45
:10027000AC4203DA54F8041B8847F9E700F0B8BF32
:1002800000040020000800200000000800000020FA
:1002900000040020C02C00080008002038080020BE
:1002A0003808002040110020E0010008E0010008AB
:1002B000E0010008E001000892E700F000F8FEE726
:1002C0002DE9F04FC1F80CD0C3689D46BDE8F08F12
:1002D000002383F311882846A047002001F0B0FFD7
:1002E00001F056FE00DFFEE70F0052E3F0402DE97B
:1002F0002900009A003081E1030013E33100001A65
:1003000002E0A0E110C080E2103081E2107013E53D
:100310000C6013E5085013E5044013E510E04EE2CD
:100320000F005EE310700CE50C600CE508500CE566
:1003300004400CE5103083E210C08CE2F2FFFF8A2B
:10034000103042E20F30C3E30F6002E2103083E26C
:10035000030056E3031081E0033080E01B00009AA5
:100360000140A0E106C0A0E104E043E204C04CE289
:10037000045094E403005CE30450AEE5FAFFFF8A06
:1003800004C046E203C0CCE304C08CE20C3083E03E
:100390000C1081E0032002E2000000EA0030A0E13E
:1003A000000052E30500000A013043E2022081E030
:1003B00001C0D1E4020051E101C0E3E5FBFFFF1AF7
:1003C000F040BDE81EFF2FE10030A0E1F5FFFFEA9D
:1003D0000620A0E1F1FFFFEA00000000000000009D
:1003E000024AD36843F08003D36070470044004062
:1003F000836970B51C69DA681440E2B2D243A6077B
:1004000005461A6103D543681B6903B19847600725
:1004100004D56B689B690BB128469847210704D522
:100420006B681B6A0BB128469847E20604D56B68D7
:100430009B6A0BB128469847E30706D56B689B6813
:100440001BB12846BDE87040184770BD0000000091
:1004500030B4C46A2268136823F01F031360136862
:1004600013F00103FBD1257A826A60683D21A9401F
:10047000016053609368012123F08043936030BC96
:1004800091607047000000000000000000000000C4
:100490000020704700000000000000000000000085
:1004A00011F00C0F70B5044618D10369ABB18D067D
:1004B00011D51A78002A42D05D6875B1C268012A48
:1004C00038D95E8883685208510006FB01312B46FB
:1004D000BDE870401847CA0623D470BDFFF7B8FFC7
:1004E00023699B68002B4AD00522227000212046F8
:1004F00098472378052B04BF022323700023236130
:10050000202383F3118863693BB100214FF0FF3250
:10051000616118465A6201F02BFE002383F31188B3
:1005200070BD5B68002BD8D0C26881685208BDE8F6
:10053000704018472B468168BDE870401847FFF7A8
:1005400087FF23695B68ABB104222270A168E2686F
:10055000204698472378042B0CD0202383F311885E
:100560006369002BD9D00022626118465A6201F0FB
:10057000FFFDD2E70222002322702361EDE7022271
:1005800023612270BCE700BF0000000000000000F3
:10059000F8B504460F461646202383F3118803E07E
:1005A00001F0BEFD002819DBA56831462046002D6C
:1005B000F6D06269A368511C013B6161A3601770AA
:1005C000236962699A4224BFE3686361E3690BB1FE
:1005D00020469847002080F31188F8BD85F31188E4
:1005E000F8BD00BF00000000000000000000000097
:1005F0003030FFF7CDBF00BF00000000000000005A
:1006000030304FF0FF32FFF7C3BF00BF00000000E3
:1006100070B5202304460E4683F3118803E001F0F1
:100620007FFD00281ADBA56831462046002DF6D054
:10063000A169A36820694A1C013B8242A360A261B0
:1006400028BFE3680D7828BFA361E3690BB120469A
:100650009847002383F31188284670BD85F31188DD
:1006600070BD00BF0000000000000000000000009E
:100670000C30FFF7CDBF00BF0000000000000000FD
:100680000C304FF0FF31FFF7C3BF00BF0000000088
:100690002DE9F04F83B017460193D0F81CA04FF01E
:1006A000200B8BF31188002A51D004460E464FF0E0
:1006B000000817E02A463146FFF716FEE36863613B
:1006C000A3685B1BA3606DB3BAF1000F01D0204695
:1006D000D047002383F31188A8442E448BF311885C
:1006E000474525D9A36860699F4223698CBFA568E7
:1006F0003D461B1AAB4222D8DCD21A463146A5EB46
:1007000003090093FFF7F0FD009BE068F1184A46EB
:10071000FFF7EAFDE3684B446361A3685B1BA360DA
:10072000002DD1D10199204601F0FAFC0028D7D044
:10073000002383F31188404603B0BDE8F08F2A46BA
:100740003146FFF7D1FD63692B446361B8E79046FA
:10075000EEE700BF00000000000000000000000005
:100760003030FFF795BF00BF000000000000000020
:1007700030304FF0FF33FFF78BBF00BF00000000A9
:100780002DE9F04F83B017460193D0F81CA04FF02D
:10079000200B8BF31188002A51D004460E464FF0EF
:1007A000000817E02A463046FFF79EFDE368A36184
:1007B000A3685B1BA3606DB3BAF1000F01D02046A4
:1007C000D047002383F31188A8442E448BF311886B
:1007D000474525D9A368A1699F4223698CBFA568B5
:1007E0003D465B1AAB4222D8DCD21A463046A5EB16
:1007F00003090093FFF778FD009BE168F0184A4673
:10080000FFF772FDE3684B44A361A3685B1BA36021
:10081000002DD1D10199204601F082FC0028D7D0CB
:10082000002383F31188404603B0BDE8F08F2A46C9
:100830003046FFF759FDA3692B44A361B8E7904602
:10084000EEE700BF00000000000000000000000014
:100850000C30FFF795BF00BF000000000000000053
:100860000C304FF0FF33FFF78BBF00BF00000000DC
:100870002DE9F0476E4D6E6FD6F80C903368DA05AF
:1008800082B09CB200F18380202383F3118814F09E
:100890002F0F4DD0674F4FF0000A07F1080807E00F
:1008A000A00673681DD43468A4B214F02F0F3FD093
:1008B0002307F5D014F0080F0CBF00218021E007BA
:1008C00048BF41F02001A20748BF41F04001630743
:1008D00048BF41F48071384601F062FCA00673689D
:1008E000E1D56A6995F87840002A3DD02A6A696A9C
:1008F0008A4243D069692340501C013128626961F2
:1009000013702A6AEB699A4201D3AB692B62EB68D8
:100910004345C8D01A68EA601846C2F80480C3F894
:1009200024A001F025FC3468A4B214F02F0FBFD12D
:10093000002383F3118819F0800F01D0220635D4EB
:1009400019F0400F0BD0630609D5202383F31188DB
:100950006A6CAB6C9A424ED0002383F3118802B0CC
:10096000BDE8F04701F0ACBA04213846019301F02C
:1009700017FC2A6A696A019B8A42BBD1696900290E
:10098000B8D04FF48061384601F00AFC8BE7202391
:1009900083F311884FF40071281D01F001FC6FF4FE
:1009A00080733360002383F311886DE7202383F382
:1009B0001188AB6C6A6C9A422AD0AA6B296C581CBD
:1009C0000132AA63A86488421F7801D3EB6BAB6441
:1009D0002B6B194A934209D0196829634FF0000E16
:1009E0004A601846C3F824E001F0C2FB7760002398
:1009F00083F31188A4E7AB6B002BADD010210D4819
:100A000001F0CEFB4FF6BF7309EA0303F360A3E7DF
:100A1000AA6B002AD1D00821064801F0C1FB4FF68D
:100A20003F7309EA030343F04003F360DFE700BFCD
:100A30004C100020501000207C100020000000000E
:100A400008B50348FFF7D4FCBDE8084001F038BA08
:100A500070080020000000000000000000000000FE
:100A600008B50348FFF7C4FCBDE8084001F028BA08
:100A700054080020000000000000000000000000FA
:100A800008B50348FFF7B4FCBDE8084001F018BA08
:100A900038080020000000000000000000000000F6
:100AA000FFF7EEBF000000000000000000000000A3
:100AB0002DE9F0474FF080473B699B0703D4BDE821
:100AC000F04701F0FDB900213961202383F311883B
:100AD0001E4CA146B84659F81C3F9A680F46D8F8F4
:100AE0002400A16A451A95421BD320261868D3F822
:100AF0000CA011444845A162A5EB0205C0F8049082
:100B0000E061DF6008BFC8F80C7087F311881869CE
:100B1000D04786F31188E3699A689542DFD3A16ACA
:100B2000E4E7E2694A450AD09168A0624D1B9560EE
:100B30009B68022B2CBFC0180230C8F83400002379
:100B400083F31188BDE8F04701F0BAB9C81000205E
:100B50002DE9F04F02F0030AC2F38008C2F3C10C82
:100B6000C2F3411ED146C2F3C31200274FF00F0B50
:100B70000FE0036A23EA040425430562490839D0DB
:100B80004FEA48084FEA8C0C4FEA8E0E4FEA89096B
:100B90000137CB07F2D543680124BC4023EA0403A4
:100BA00043EA0803436003257B00846805FA03F3E6
:100BB000DB431C4044EA0C048460C56807F007046A
:100BC0001D4045EA0E05A400BAF1020FC56002FA05
:100BD00004F50BFA04F40FD00668334043EA090326
:100BE000072F0360C5D9436A23EA04042543490853
:100BF0004562C5D1BDE8F08F072F0AD8066A26EAFC
:100C00000404254305620468234043EA09030360A2
:100C1000B4E7466A26EA040425434562F3E700BFC9
:100C2000084B09485968826F890D01F03D0110B5E4
:100C30008C05DC600AB1C06F9047BDE8104001F040
:100C40003FB900BF00640240600A002000000000BD
:100C5000084B09485968026F090C01F03D0110B5B5
:100C60000C04DC600AB1406F9047BDE8104001F011
:100C700027B900BF00640240600A002000000000A5
:100C8000084B09485968826E890901F03D0110B589
:100C90008C01DC600AB1C06E9047BDE8104001F0E5
:100CA0000FB900BF00640240600A0020000000008D
:100CB00008B5074B07485968026E01F03D01D9603D
:100CC0000AB1406E9047BDE8084001F0F9B800BF96
:100CD00000640240600A00200000000000000000E4
:100CE000084B09481968826D890D01F03D0110B566
:100CF0008C059C600AB1C06D9047BDE8104001F0C2
:100D0000DFB800BF00640240600A0020000000005D
:100D1000084B09481968026D090C01F03D0110B536
:100D20000C049C600AB1406D9047BDE8104001F092
:100D3000C7B800BF00640240600A00200000000045
:100D4000084B09481968826C890901F03D0110B50A
:100D50008C019C600AB1C06C9047BDE8104001F066
:100D6000AFB800BF00640240600A0020000000002D
:100D700008B5074B07481968026C01F03D019960FE
:100D80000AB1406C9047BDE8084001F099B800BF37
:100D900000640240600A0020000000000000000023
:100DA000084B09485968826B890D01F03D0110B567
:100DB0008C05DC600AB1C06B9047BDE8104001F0C3
:100DC0007FB800BF00600240600A00200000000001
:100DD000084B09485968026B090C01F03D0110B538
:100DE0000C04DC600AB1406B9047BDE8104001F094
:100DF00067B800BF00600240600A002000000000E9
:100E0000084B09485968826A890901F03D0110B50B
:100E10008C01DC600AB1C06A9047BDE8104001F067
:100E20004FB800BF00600240600A002000000000D0
:100E300008B5074B07485968026A01F03D01D960BF
:100E40000AB1406A9047BDE8084001F039B800BFD8
:100E500000600240600A0020000000000000000066
:100E6000084B094819688269890D01F03D0110B5E8
:100E70008C059C600AB1C0699047BDE8104001F044
:100E80001FB800BF00600240600A002000000000A0
:100E9000084B094819680269090C01F03D0110B5B9
:100EA0000C049C600AB140699047BDE8104001F015
:100EB00007B800BF00600240600A00200000000088
:100EC000084B094819688268890901F03D0110B58D
:100ED0008C019C600AB1C0689047BDE8104000F0EA
:100EE000EFBF00BF00600240600A00200000000069
:100EF00008B5074B074A196801F03D01996013686E
:100F00000BB150689847BDE8084000F0D9BF00BF5A
:100F100000600240600A00200000000000000000A5
:100F20001C4B1A680021196093062CD510B51A4C79
:100F3000E36A1B685B6813B3236903B32046FFF7BA
:100F400087FA23699B6803B305222270012120469A
:100F500098472378052B04BF0223237000232361C5
:100F6000202383F31188606930B14FF0FF3343626F
:100F70000023636101F0FCF8002383F31188BDE8CE
:100F8000104000F09DBF00F09BBF02222361227041
:100F9000E6E700BF0020014018100020000000001C
:100FA0001A4B10B55C691A68144004F47C425A610B
:100FB000620504D5164A136D0BB1506D9847230591
:100FC00004D5134A936D0BB1D06D9847E00404D556
:100FD0000F4A136E0BB1506E9847A10404D50C4A0A
:100FE000936E0BB1D06E9847620404D5084A136F14
:100FF0000BB1506F9847230404D5054A936F0BB18A
:10100000D06F9847BDE8104000F05ABF003C014047
:101010008C0800200000000000000000000000001C
:10102000174B10B55C691A68144004F478725A6161
:10103000A30604D5134A936A0BB1D06A9847600699
:1010400004D5104A136B0BB1506B9847210604D599
:101050000C4A936B0BB1D06B9847E20504D5094A53
:10106000136C0BB1506C9847A30504D5054A936CDB
:101070000BB1D06C9847BDE8104000F021BF00BF15
:10108000003C01408C08002000000000000000002F
:10109000084A08B5536911680B4003F01003536107
:1010A00023B1054A136A0BB1506A9847BDE808405E
:1010B00000F006BF003C01408C080020000000004A
:1010C000084A08B5536911680B4003F008035361DF
:1010D00023B1054A93690BB1D0699847BDE8084030
:1010E00000F0EEBE003C01408C0800200000000033
:1010F000084A08B5536911680B4003F004035361B3
:1011000023B1054A13690BB150699847BDE80840FF
:1011100000F0D6BE003C01408C080020000000001A
:10112000084A08B5536911680B4003F00203536184
:1011300023B1054A93680BB1D0689847BDE80840D1
:1011400000F0BEBE003C01408C0800200000000002
:10115000084A08B5536911680B4003F00103536155
:1011600023B1054A13680BB150689847BDE80840A1
:1011700000F0A6BE003C01408C08002000000000EA
:10118000F0B5134F134D144C144B154907F1700E65
:1011900000269C4211D904391A4651F8040F42F82E
:1011A000040B9442F9D8DA43144424F003040434C1
:1011B00023449D4203D943F8046B9D42FBD87745F5
:1011C00004D007F110013AC91037E2E7F0BD00BFC3
:1011D000742A000840110020401100204011002016
:1011E000F82C0008000000000000000000000000D3
:1011F000FEE700BF0000000000000000000000004B
:10120000704700BF00000000000000000000000068
:10121000704700BF00000000000000000000000058
:1012200008B5074B074A9B69074C9A61636983F0CD
:101230002003636140F6B83000F08AFFF6E700BF94
:10124000C8100020F42A000800040240000000003A
:101250006D4B6E4A9B696E4880B54FF420619A6170
:101260008222FFF775FC202383F31188694C6A49B9
:1012700023784F68A760012B616000F09D80A26910
:1012800063690020106050639063D0631064506203
:10129000CE680868B3FBF0F3581E06F00F037D1EFE
:1012A000012BCF6A9062D562576003D0022B0CBF2E
:1012B000032300234D6905F00F00012803D0022805
:1012C00003D143F0200343F01003C86900F00F0777
:1012D000012F03D0022F03D143F4007343F4807332
:1012E0004F6A07F00F07012F03D0022F03D143F4F9
:1012F000005343F4805306F0F006102E03D0202E46
:1013000003D143F0080343F0040305F0F005102D6A
:1013100003D0202D03D143F0800343F0400300F0BD
:10132000F000102803D0202803D143F4006343F4D5
:101330008063486B096B1362002541F40043012769
:1013400020F0FF008526022157611561D0605364AB
:101350001660E560217085F31188304F304EDFF85C
:10136000D0904FF02008A36839885B0001FB03F19F
:10137000A9FB0131490B88F31188E368A26943F0A6
:101380000103E360516385F31188A268338852003A
:1013900003FB02F3A9FB03235B0B88F31188E268CC
:1013A000A16942F00202E2608B6385F311884FF479
:1013B0007A7000F0CDFED6E71A481B4B466CA26946
:1013C000636146F001064664466E184D46F001061C
:1013D0004666466A46F0010646620026466270206E
:1013E0004FF0007685F81903C5F880612E6085F806
:1013F0001B034FF0006646F66800C5F880612E605A
:101400009061D06144E700BFC81000205C2B000849
:101410000010024038080020000800200C090020BD
:101420000E09002000380240007A030A00E100E0C3
:101430005917B7D1000000000000000000000000B4
:101440002DE988485E4B5F4A9B695F489A61032299
:101450001146FFF77DFB202383F311885B4C237833
:101460000022012B626040D002232370002585F307
:101470001188574A536843F400035360202383F3D1
:10148000118804220323534F534EE2602370A76058
:10149000266101F03DF885F31188DFF858B1DFF8D7
:1014A00058A1DFF858914D4DDFF85481202383F384
:1014B0001188042203232370A7602661E26001F0F3
:1014C00027F8002383F31188BBF8002049462846FB
:1014D00001F0EEF8BAF800204146284601F0E8F89D
:1014E0004FF47A7000F034FEE0E7E16A3C4D487A50
:1014F0002E688340334248D13A4A3B4F42F830701D
:10150000334302EBC00213F0FF0F2B60546008D08E
:10151000364A106B40F400101063106D40F4001058
:10152000106513F47F4F08D0304B1A6B42F48002E1
:101530001A631A6D42F480021A650A68136823F070
:101540001F031360136813F00103FBD10D7A4E687B
:101550003D20A8402125306013605561897A4B09F0
:101560009B0001F1604503F1604303F5614305F51C
:10157000614501F01F01012000FA01F1602685F8A4
:101580000063C3F88011196000E00A68174B18491E
:101590009160596CA26A0E4841F480715964596E89
:1015A00041F480715966436803F44003002143F419
:1015B00080330125436051609160956054E700BF1E
:1015C000C8100020282B000800000240181000203E
:1015D00000230140E80A0020202C00084C100020C5
:1015E000E00A0020600A0020A10400080038024040
:1015F0004C2001400C0900200E090020342B00086B
:10160000482B00080000000000000000000000005F
:101610002DE980484A4D4B49AA694B4B4B48906194
:101620008BB009601B60202080F311880AAC0A6827
:1016300044F8142DAA690692012700224FF0FF36C4
:1016400007970C600892099682F3118880F311883D
:101650000AA91C6841F8284DAF6903920224049638
:1016600001970294196082F3118880F31188384C35
:10167000384BE16821F4704141F48051E160996890
:1016800041F080019960D96841F08001D960196802
:1016900041F080011960596821F08001596082F39E
:1016A000118880F311882C4B2C49DA63996382F3FB
:1016B0001188DFF8B4A02A4F2A4EDFF8B090DFF887
:1016C000B08001E0A30733D4D5F818B0202383F30A
:1016D0001188DBF8343013F0030409D10323CBF86D
:1016E00024300A2000F074FCDBF8343003F00304EB
:1016F0006242144023EA0403CBF83430002383F31E
:101700001188E2074FF08003DCD5B361DAF80030CE
:10171000002BD7D13B6801331A464FF0010E4946E2
:1017200040463B60CAF800E000F0C2FFA307CBD5FB
:101730004FF400020023B261CAF80030BFE700BFD7
:10174000C81000201009002014090020FC2A0008FD
:1017500000380140003C01408C08002001220008B4
:10176000400A0020000C0240E40A0020102B000870
:101770004C100020000000000000000000000000ED
:101780001E4B1F4819696FEAC15100226FEAD151FF
:101790002DE980484FF0FF3419611A6159695C6185
:1017A0005A61196A61F0805119621A62596A5C6261
:1017B0005A62196C41F080511964196E41F08051E0
:1017C0001966016841F480710160196F01F440717C
:1017D000B1F5007F89B003D04FF4803119671A67E3
:1017E000074C084E62680849084D094F002022F452
:1017F000007262600346024630600DE0003802402D
:1018000000700040E00A00206C2B000810600240CD
:10181000600A002051F80C5C2A6047F8332001333D
:10182000102B01F10C01F5D1C14BC248C24EC34986
:1018300060224FF0FF34402584608027C460B4608C
:101840004FF48070F46083F806234FF40076C3F8F9
:1018500080514FF480641D604FF4000583F8072326
:10186000C3F880711F6083F80823C3F880011860F3
:1018700083F80923C3F880611E6083F80A23CE1918
:10188000C3F880411C6083F817230024C3F88051FB
:101890001D6083F82823C3F8840158600C604C60F5
:1018A0000831B142FAD1A64EA64BDFF884B2A64F5A
:1018B000DFF8D4829F62C3F82C80012731464FF0B5
:1018C00060085C609C60DC601C615C611C621F7075
:1018D000DFF8B8A28BF812834FF48028CBF8808110
:1018E000CBF8008041F804AB984D9948994ADFF84D
:1018F000A092C3F8309003F118084FF0040ADFF803
:1019000094927160C3F818801021C3F81C80DFF82E
:1019100088C2DFF888E2904B2F706C60EC60C5F8ED
:1019200018C085F810A007704460C46080F810A04B
:10193000C0F818E017705460D46082F810A093616A
:1019400037727461B163D9F8403001913B43B4629E
:10195000C9F84030D9F860308048F6623B43C9F896
:1019600060308268DFF838E2DFF838827C4DC6F8F4
:101970004CE04FF0804306F1740C3A43C6F840C087
:10198000C6F8748036654FF0FF3E826006F10C08A1
:1019900006F1540042F2CF0CC3F828C006F16402ED
:1019A000C3F82CE006F1300CC6F80C809C61C6F838
:1019B00010805C634FF08008B061DC6070625C6036
:1019C00030624FF080505F61F261F263B264726422
:1019D000C6F830C00022C6F834C01F6005F11C0CE8
:1019E0008BF81C830023CBF88001CBF8000002A801
:1019F0002D606D60CDE90623CDF808E0C5F824E040
:101A0000C5F81CC0C5F820C0039404940594AC60CC
:101A10002D616D61AC626C6700F0FAFD02A800F008
:101A20008FFA5048049B504A6B67504B036000F19B
:101A30000C03446084604461C360036102F11000E0
:101A40001423C2F81CA0C2F834A0106102F1240AC9
:101A500002F1280093611C23DFF84CE1DFF84CC150
:101A6000C2F824A0906202F13C0A02F14000136324
:101A70003F4BC2F83CA0106413629363DFF830A1BF
:101A80003C483D4B94605461D462CCF800A0CCF843
:101A90000400C5F8388085F85140C5F86C80AC6604
:101AA0006C6685F8527012605260AB64DEF80C0010
:101AB000324BD5F814A0DFF8FCC0C5F844A04FF6AF
:101AC000FF021040034305F130022D64CAF81020D4
:101AD000CEF80C30DCF80C3029486A6143F0807392
:101AE000CCF80C3003680199AA613B4305F15C0214
:101AF00005F1580C4FF0200AEC6485F85070036033
:101B0000C5F858C08EF81F10EA658EF822A02A6624
:101B100084F3118862B68AF311881A4B6969C3F895
:101B2000987003F16C02C3F8CC7083F8B27043E094
:101B300000E100E000600240006402408C080020E8
:101B40004C10002018100020002001403808002010
:101B5000540800207008002000080040002004E025
:101B6000C8100020440A002018090020F11D0008B8
:101B7000B11D000800000220482C00080003FA05EF
:101B8000001000E060090020F02B0008882C0008FD
:101B9000162C020000380240000001400004004002
:101BA000E10300080044004000ED00E0380A002096
:101BB00040110020F0ED00E0C3F89C20DFF87CC16C
:101BC000DFF87CE14F48C3F8A41003F1900202272C
:101BD00083F8B070C3F8A8001C6783F8B140C3F85D
:101BE000C840C3F8C440C3F8A050C3F8AC30C3F831
:101BF0006CC0C3F88CE003F1B8070A6103F1BC01C3
:101C00001046C3F8B870C3F8BC10C3F8C0106A61BE
:101C100000F0CEFC84F311883B4D3C4C41462846F5
:101C20001922FEF795FF514620461922FEF790FF34
:101C3000414620464022FEF78BFFA5F81A80A4F803
:101C40001AA08AF31188337A012B45D0736F304A7A
:101C500093423DD002F58062934239D040F2454232
:101C60009A604024012142F22C1500221C61FF20C1
:101C70005961DD6002211A601D685B6886F8780092
:101C8000317282F3118840F2823220211E48FEF721
:101C90005FFF40F2823221461B48FEF759FF1D4983
:101CA0001D4800F005FD1D4A1D48812100F0B8FCCB
:101CB0001C4A1D48822100F0B3FC1C4A1C488421A8
:101CC00000F0AEFC1B4A1C48832100F0A9FCFEE793
:101CD00040F68B029A60C4E7D9F8403043F40033F1
:101CE000C9F84030D9F860304022C02143F40033B5
:101CF000C9F860308BF82613CBF88421CBF8042088
:101D0000A4E700BF602C0008000C02400004024061
:101D100000100140682C00084C100020211200081F
:101D2000F80A002011160008400C00204114000899
:101D3000880D002051120008D00E0020B11E0008AE
:101D4000D1020008000000000000000000000000B8
:101D50000378042B16D10C490C480A884B88F0B440
:101D60008D88CC880F894E892A4423448D89CC895B
:101D700007493A4433442A442344F0BC92109B1050
:101D800002800B80704700BFE80A00200C09002089
:101D90000E0900200000000000000000000000000C
:101DA000704700BF000000000000000000000000BD
:101DB000F0B40B4E376872687C1E4B1E4D420C44CB
:101DC0001918294004EA05000144914204D88F42C1
:101DD00002D83160F0BC70470020F0BC704700BFF3
:101DE000380A002000000000000000000000000091
:101DF000F0B4202383F311880D4D2F686C684E1EBC
:101E00003A448319494290190B4008400344A342C5
:101E100007D89F4205D82B60002383F31188F0BCBC
:101E200070470020002383F31188F0BC704700BF87
:101E3000380A002000000000000000000000000040
:101E4000202383F3118890F82030072B0ED8DFE889
:101E500003F0280D0D2408040D08426A936801332D
:101E6000936090E80C001A600268536010B400227E
:101E70004FF0FF3481680D4B446280F820201B68CE
:101E80009A688A42FBD25A6842600360002110605F
:101E9000586081F3118810BC7047436A00221A60B1
:101EA000E4E7002383F31188704700BFC8100020C7
:101EB000FEE700BF0000000000000000000000007E
:101EC000202383F311880F4B5B6813F4006302D166
:101ED00083F311887047EFF309834FF0807243F862
:101EE000042CA3F1200282F30988074A1168926941
:101EF0008968926891428CBF044A054A43F8082CCD
:101F0000704700BF00ED00E0C8100020E1020008AB
:101F1000E4020008000000000000000000000000D3
:101F2000EFF30983203383F30988002383F31188B7
:101F3000704700BF0000000000000000000000002B
:101F40000E4B0F4A5B68C168F0B48768566F4268F1
:101F5000D0E90445DB1B9B1BE41845F100059342C7
:101F6000026888BF436001319342C0E90445C16003
:101F7000836038BF0360F0BC704700BF001000E012
:101F8000C810002000000000000000000000000059
:101F90000E4A1068036830B4012194695A60002524
:101FA00080F82010A1681360906184F8205000E050
:101FB0001B689A689142FBD35A686260236021468D
:101FC00014605C6030BCFEF77BB900BFC810002015
:101FD000084B99691A6810B481F8200010681860DD
:101FE0000124436082F82040104610BC9A61FEF73D
:101FF00067B900BFC810002000000000000000000A
:10200000F0B54B1C87B04CD0414C2546A3690593D5
:1020100055F81C3F02294FF0804E074638BF022179
:102020003C48DEF824200490AB425CD0A06A121A2F
:1020300089189A6831D291423CBF4018CEF83400DA
:10204000914204D91B68891A9A688A42FAD35A685D
:10205000029201AE019316605E6003919A68511A74
:102060004FF0FF32996062623846FFF7B1FF049B80
:102070007BB1E369B3421BD0029A019B1360019BC1
:102080000021AB425A60049103D09A6803990A4434
:102090009A60A369586A07B0F0BD1B68891A9A68EC
:1020A000CEE71B4CFFF794FFA369586A07B0F0BD59
:1020B000019BE3610022AB425D60049224D09A68E8
:1020C0000398A16A02444FF080409A60436A5B1A09
:1020D0009A42DED9D01A012898BF9A1C4FF080434B
:1020E0000A445A63D5E7A262881801AE002202238F
:1020F000019502950391E6612662CEF83400CEF890
:102100001020CEF80C30AFE74FF08043DA60C0E724
:10211000C8100020411E0008000000000000000060
:1021200061B1084B10B4024644689B69042083E8FF
:1021300014002360536010BCFFF762BF4FF0FF3004
:10214000704700BFC8100020000000000000000021
:1021500008B50146202383F311880820FFF750FFBC
:10216000002383F3118808BD000000000000000078
:1021700000228168084B10B4044680F820201B68B8
:102180009A688A42FBD25A686260236020461460D3
:102190005C6010BC704700BFC81000200000000049
:1021A000F8B50468A04222D00D460746002602E09A
:1021B0002468A7421BD0E3682B43E36015B1226972
:1021C0001342F5D06068A368416B90F820200B4360
:1021D0000A2A43630CD00B2AEAD1426A32EA03038B
:1021E000E6D14662FFF7C4FF2468A742E3D1F8BDF9
:1021F000426A1342DCD04662FFF7BAFFF4E700BF41
:1022000008B5202383F31188094B1969C1F3C01164
:1022100031B90848FFF7C4FF002383F3118808BDD4
:1022200000210548FFF7BCFF002383F3118808BD98
:1022300000040240140900201009002000000000E2
:1022400038B52022034682F31188104A9469A06AA7
:10225000636204F12805854206D00368A362FFF794
:1022600087FFA06AA842F8D194F8223043B994F8C5
:1022700021309B0704D1636922691A612269536185
:102280000F20BDE83840FFF7A3BE00BFC8100020F4
:10229000864ADFF84CC211692DE9F04340F2FF197C
:1022A000002341EA090111611361116B804F814ED6
:1022B000814DDFF830E2814C41EA09011163116D73
:1022C00041EA0909C2F850906FF4A849CCF80430EB
:1022D000CCF80890DFF81092CCF80C904FF6FF7114
:1022E000DFF80892CCF81410CCF82090DFF80092B8
:1022F000CCF8249009F12A5909F5B019CCF80090CE
:102300004FF4107CC7F804C04FF0FF30DFF8E4C191
:10231000B860C7F80CC04FF0806C7961C7F820C076
:10232000DFF8D4C14FF04008C7F82480C7F800C0D8
:102330000CF1AA4CACF5430CACF62C3C7360B060CD
:10234000C6F80CC04FF0C04C7161C6F820C0DFF871
:10235000ACC1C6F824C0DFF8A8C1C6F800C0DFF8D9
:10236000A4C16B60A860C5F80CC040F6FF7CC5F83E
:1023700014C007F58057DFF890C12B6206F5805630
:102380006B62C5F800C005F58055DFF838C1CEF89E
:102390000430CEF80800CEF80C30CEF81410CEF889
:1023A0002030CEF82430CEF800807B604FF0805E85
:1023B000B860FB6079613B627B623B604FF44047F1
:1023C0007360B060F36071613362736233606B603D
:1023D000A860EB6069612B626B622B606360A06038
:1023E000E3606161236263622360C2F840E0CCF87D
:1023F0000070136843F00103136013461A689407D2
:10240000FCD59968294A21F003019960936813F07B
:102410000C03FBD11068254900F0F90010609360AF
:10242000136843F4803313600B689803FCD54B6F3B
:102430001E4A43F001034B67536F9907FCD5204BAD
:10244000536013681F4943F0807313604B685A044C
:10245000FCD5164A13689B01FCD51B4B1B499160A8
:102460001A681B4B9A4217D01A4B40F205721A6039
:102470000E4A936843F002039360936803F00C03E1
:10248000082BFAD1536C43F480435364536E43F4E6
:1024900080435366BDE8F0830F4A104B12689A429E
:1024A000E2D10C4B40F205121A60E1E7003802401D
:1024B0000004024000080240000C024000200240DC
:1024C0000854400700700040002004E00094883861
:1024D00011640020003C024000ED00E041C20F41C9
:1024E0000000024000100240540001400000565518
:1024F00000AA0A0015455155802008000006060074
:1025000001802002555055000001005500000000D8
:10251000244A13691978F0B5146B00292ED1D168BB
:10252000D06A5D8800689668C66001FB05F141606D
:10253000D96804600768DE691C69926A47F0010780
:10254000013D076046EA05555F699E69186A5B6A46
:1025500041F080614FF0000EC2F800E041F480715C
:10256000D7601661D56210635363630051600DD468
:1025700044F4407444F001049460F0BDD168012932
:1025800094BF44F4807444F48474C9E724F0804315
:1025900040F2033123F002030B430C439360946039
:1025A000F0BD00BF18100020000000000000000077
:1025B000154B70B4002204469D694262A868A16868
:1025C00081420CD884F820201B689A689142FBD97C
:1025D0005A686260236014605C6070BC704785F864
:1025E00020201A46126891688842FBD950686860BA
:1025F00001262A600560556084F82060294620463F
:102600009C6170BCFDF75CBEC8100020000000009B
:10261000014B5B6883607047001000E00000000021
:10262000F8B50346202080F311881E4EC3F8DC2045
:1026300070691D4CC3F8081103F1DC050122C3F8D1
:102640003C11C3F80C51C3F8FC4003F5807500241D
:1026500083F822214FF0020E03F5967203F5947170
:10266000124FC3F81401C3F81C3183F820E1C3F8FA
:102670001871C3F8E04083F82141C3F83841C3F82A
:102680003441C3F8106105612846C3F82811C3F826
:102690002C21C3F830217561FFF78AFF84F311887C
:1026A0002846F8BDC8100020D1020008B02C000850
:1026B0000EB42DE9F04F86B00FAF9F4D57F8046B65
:1026C00002974FF0000B3178731C61B1252910D0AF
:1026D0002A689948D2681E46904731780BF1010B61
:1026E000731C0029F2D1584606B0BDE8F04F03B084
:1026F000704772782D2A03BFB278B31C4FF0010CDB
:102700004FF0000C302A03BF5A7801334FF03009E4
:102710004FF02009591C002405E03B78043711F8DC
:10272000012B03EB4004A2F13003DBB2092B0E4670
:1027300004EB8400F3D92A2AEFD02E2A4FF00001AF
:1027400043D002F0DF034C2B4ED0A2F144003428DA
:1027500000F25181DFE810F0FE004F014F014F0100
:102760004F01FE004F014F014F014F014F01F80093
:102770004F014F014F014F014F0188004F014F01A1
:10278000FB004F014F014F014F014F014F014F011E
:102790004F014F014F014301FE004F014F014F0117
:1027A0004F01FE004F014F014F014F014F01F80053
:1027B0004F014F014F0129014F0188004F014F0187
:1027C000FB003B78043703EB400116F8012BA2F124
:1027D0003003DBB2092B01EB8100F4D92A2AF0D0B7
:1027E00002F0DF034C2BB0D133780BB101361A461F
:1027F000A2F14403342B00F2FE80DFE813F0AB00BB
:10280000FC00FC00FC00FC00AB00FC00FC00FC0039
:10281000FC00FC00A500FC00FC00FC00FC00FC002F
:102820003500FC00FC00A800FC00FC00FC00FC00E3
:10283000FC00FC00FC00FC00FC00FC00F000AB0015
:10284000FC00FC00FC00FC00AB00FC00FC00FC00F9
:10285000FC00FC00A500FC00FC00FC00D600FC0015
:102860003500FC00FC00A8004FF00A083A680DF1A2
:102870001701043700E00146B2FBF8FE08FB1E22F8
:1028800002F13003392BC8BF02F13703DBB27246C5
:1028900001F8013C481E002AEDD10DF117020DF19F
:1028A0000C08121AC646104401E011F8013B0EF85C
:1028B000013B8842F9D1531E0193A41A3ED4BCF1C6
:1028C000000F40F0A180C4F1000A002C00F09B80B2
:1028D00098F800102D2900F0A6802B684946DB6887
:1028E000284698471AF1010AF7D1019B002BA3440F
:1028F000A8BF5446FFF6E7AEDDF804A02B6818F831
:10290000011BDB680AF1FF3A28469847BAF1FF3FFE
:10291000F4D1019B0BF1010B9B44002C3FF4D3AE8F
:10292000A0462B684946DB6828469847B8F101085D
:10293000F7D1A344C7E600BF4C100020019B002B39
:10294000A8BF0024D8DABEE64FF008088EE74FF0A3
:1029500010088BE73968002907F1040773DB0DF1D4
:102960000C08424602F10B03019318463E4BA3FBB1
:1029700001E3DB0803EB830A9E46A1EB4A033033F5
:10298000DBB2714600F8013D0029EFD10199091A27
:10299000114401E010F8013F02F8013B8A42F9D1ED
:1029A000A2EB0802531E019387E7D7F80080043793
:1029B000B8F1000F50D098F8003051B36BB3013923
:1029C000424601E0013903D412F8013F002BF9D14E
:1029D000A2EB0802531E01934FF020096DE70DF1A1
:1029E00018083B6808F80C3D0023043701930122C6
:1029F0004FF0200961E70DF11808002308F80C2DAD
:102A00000193012259E75446019B002BBFF674AF96
:102A100083E747F6FE71002BD2D14FF0FF330193CD
:102A20004FF020094BE7B9F1300F7FF456AF2A6819
:102A30000E48D2689047019B013B08F101080BF159
:102A4000010B019349E72D2349428DF80C300DF11C
:102A50000D020DF10C0885E7DFF814800029AED1D6
:102A600047F6FF71ABE700BFCDCCCCCC4C100020BB
:042A7000B82C000876
:102A7400F82C0008401100204011002040110020D3
:102A8400F82C0008000000200000002000000020B6
:102A9400F82C000800C0012000C0012000C0012063
:102AA400F82C0008000000000000000000000000F6
:102AB400F82C0008000000100000001000000010B6
:102AC400F82C000800400240004002400040024050
:102AD400F82C0008000000000000000000000000C6
:102AE400F82C0008000000000000000000000000B6
:102AF400626C696E6B657200494E54455252555072
:102B04005420425554544F4E3100000042757474A1
:102B14006F6E2050726573736564203A20256420BB
:102B24000D0A0000526561642D4144430000000019
:102B3400414443315F434830203A202564200D0A44
:102B44000D0A0000414443315F434831203A2025B7
:102B540064200D0A0D0A000050574D001060024019
:102B64000860024000000B00286002400860024038
:102B740006010C00406002400860024010020D0093
:102B8400586002400860024016030E007060024064
:102B94000C60024000040F00886002400C60024098
:102BA40006051000A06002400C60024010061100EF
:102BB400B86002400C60024016072F001064024007
:102BC4000864024000083800286402400864024097
:102BD400060939004064024008640240100A3A00C1
:102BE4005864024008640240160B3B0070640240C3
:102BF4000C640240000C3C00886402400C640240F7
:102C0400060D4400A06402400C640240100E45000E
:102C1400B86402400C640240160F46000000020033
:102C2400511D0008A11D0008000000000000004024
:102C3400000000003F000000000010000000000041
:102C4400200000006D61696E001600280404440829
:102C54000C1014181C2021220000000069646C650B
:102C64000000000044656275672056696120536561
:102C74007269616C205573696E67205541525432F4
:102C8400200D0A0000000000710700086108000818
:102C94000106000881060008F10500087106000815
:102CA4006107000851080008910400086E6F6E6106
:0C2CB4006D650000286E756C6C29000036
:102CC000A0860100102700000000000001000000A5
:102CD00000000000010000000000000000000000F3
:102CE00000000000000000000000000000000000E4
:082CF0007F000000000000005D
:04000005080002B934
:00000001FF
